{"abi":[{"type":"constructor","inputs":[{"name":"name_","type":"string","internalType":"string"},{"name":"symbol_","type":"string","internalType":"string"},{"name":"baseURI_","type":"string","internalType":"string"},{"name":"totalNFTSupply","type":"uint256","internalType":"uint256"},{"name":"initialOwner","type":"address","internalType":"address"}],"stateMutability":"nonpayable"},{"type":"function","name":"allowance","inputs":[{"name":"owner","type":"address","internalType":"address"},{"name":"operator","type":"address","internalType":"address"}],"outputs":[{"name":"amount","type":"uint256","internalType":"uint256"}],"stateMutability":"view"},{"type":"function","name":"approve","inputs":[{"name":"spender","type":"address","internalType":"address"},{"name":"amountOrId","type":"uint256","internalType":"uint256"}],"outputs":[{"name":"","type":"bool","internalType":"bool"}],"stateMutability":"nonpayable"},{"type":"function","name":"balanceOf","inputs":[{"name":"user","type":"address","internalType":"address"}],"outputs":[{"name":"balance","type":"uint256","internalType":"uint256"}],"stateMutability":"view"},{"type":"function","name":"baseURI","inputs":[],"outputs":[{"name":"","type":"string","internalType":"string"}],"stateMutability":"view"},{"type":"function","name":"currentSupply","inputs":[],"outputs":[{"name":"","type":"uint128","internalType":"uint128"}],"stateMutability":"view"},{"type":"function","name":"decimals","inputs":[],"outputs":[{"name":"","type":"uint8","internalType":"uint8"}],"stateMutability":"view"},{"type":"function","name":"getApproved","inputs":[{"name":"tokenId","type":"uint256","internalType":"uint256"}],"outputs":[{"name":"operator","type":"address","internalType":"address"}],"stateMutability":"view"},{"type":"function","name":"isApprovedForAll","inputs":[{"name":"owner","type":"address","internalType":"address"},{"name":"operator","type":"address","internalType":"address"}],"outputs":[{"name":"isApproved","type":"bool","internalType":"bool"}],"stateMutability":"view"},{"type":"function","name":"mint","inputs":[{"name":"to","type":"address","internalType":"address"},{"name":"erc20Amount","type":"uint128","internalType":"uint128"}],"outputs":[],"stateMutability":"nonpayable"},{"type":"function","name":"minted","inputs":[],"outputs":[{"name":"","type":"uint128","internalType":"uint128"}],"stateMutability":"view"},{"type":"function","name":"name","inputs":[],"outputs":[{"name":"","type":"string","internalType":"string"}],"stateMutability":"view"},{"type":"function","name":"owner","inputs":[],"outputs":[{"name":"","type":"address","internalType":"address"}],"stateMutability":"view"},{"type":"function","name":"ownerOf","inputs":[{"name":"id","type":"uint256","internalType":"uint256"}],"outputs":[{"name":"owner","type":"address","internalType":"address"}],"stateMutability":"view"},{"type":"function","name":"renounceOwnership","inputs":[],"outputs":[],"stateMutability":"nonpayable"},{"type":"function","name":"safeTransferFrom","inputs":[{"name":"from","type":"address","internalType":"address"},{"name":"to","type":"address","internalType":"address"},{"name":"id","type":"uint256","internalType":"uint256"}],"outputs":[],"stateMutability":"nonpayable"},{"type":"function","name":"safeTransferFrom","inputs":[{"name":"from","type":"address","internalType":"address"},{"name":"to","type":"address","internalType":"address"},{"name":"id","type":"uint256","internalType":"uint256"},{"name":"data","type":"bytes","internalType":"bytes"}],"outputs":[],"stateMutability":"nonpayable"},{"type":"function","name":"setApprovalForAll","inputs":[{"name":"operator","type":"address","internalType":"address"},{"name":"approved","type":"bool","internalType":"bool"}],"outputs":[],"stateMutability":"nonpayable"},{"type":"function","name":"setBaseURI","inputs":[{"name":"uri","type":"string","internalType":"string"}],"outputs":[],"stateMutability":"nonpayable"},{"type":"function","name":"supportsInterface","inputs":[{"name":"interfaceId","type":"bytes4","internalType":"bytes4"}],"outputs":[{"name":"","type":"bool","internalType":"bool"}],"stateMutability":"view"},{"type":"function","name":"symbol","inputs":[],"outputs":[{"name":"","type":"string","internalType":"string"}],"stateMutability":"view"},{"type":"function","name":"tokenURI","inputs":[{"name":"tokenId","type":"uint256","internalType":"uint256"}],"outputs":[{"name":"","type":"string","internalType":"string"}],"stateMutability":"view"},{"type":"function","name":"totalSupply","inputs":[],"outputs":[{"name":"","type":"uint256","internalType":"uint256"}],"stateMutability":"view"},{"type":"function","name":"transfer","inputs":[{"name":"to","type":"address","internalType":"address"},{"name":"amount","type":"uint256","internalType":"uint256"}],"outputs":[{"name":"","type":"bool","internalType":"bool"}],"stateMutability":"nonpayable"},{"type":"function","name":"transferFrom","inputs":[{"name":"from","type":"address","internalType":"address"},{"name":"to","type":"address","internalType":"address"},{"name":"amountOrId","type":"uint256","internalType":"uint256"}],"outputs":[],"stateMutability":"nonpayable"},{"type":"function","name":"transferOwnership","inputs":[{"name":"newOwner","type":"address","internalType":"address"}],"outputs":[],"stateMutability":"nonpayable"},{"type":"event","name":"Approval","inputs":[{"name":"owner","type":"address","indexed":true,"internalType":"address"},{"name":"spender","type":"address","indexed":true,"internalType":"address"},{"name":"amount","type":"uint256","indexed":false,"internalType":"uint256"}],"anonymous":false},{"type":"event","name":"ApprovalForAll","inputs":[{"name":"owner","type":"address","indexed":true,"internalType":"address"},{"name":"operator","type":"address","indexed":true,"internalType":"address"},{"name":"approved","type":"bool","indexed":false,"internalType":"bool"}],"anonymous":false},{"type":"event","name":"BatchMetadataUpdate","inputs":[{"name":"fromTokenId","type":"uint256","indexed":false,"internalType":"uint256"},{"name":"toTokenId","type":"uint256","indexed":false,"internalType":"uint256"}],"anonymous":false},{"type":"event","name":"ERC20Transfer","inputs":[{"name":"from","type":"address","indexed":true,"internalType":"address"},{"name":"to","type":"address","indexed":true,"internalType":"address"},{"name":"amount","type":"uint256","indexed":false,"internalType":"uint256"}],"anonymous":false},{"type":"event","name":"ERC721Approval","inputs":[{"name":"owner","type":"address","indexed":true,"internalType":"address"},{"name":"spender","type":"address","indexed":true,"internalType":"address"},{"name":"id","type":"uint256","indexed":true,"internalType":"uint256"}],"anonymous":false},{"type":"event","name":"MetadataUpdate","inputs":[{"name":"tokenId","type":"uint256","indexed":false,"internalType":"uint256"}],"anonymous":false},{"type":"event","name":"OwnershipTransferred","inputs":[{"name":"previousOwner","type":"address","indexed":true,"internalType":"address"},{"name":"newOwner","type":"address","indexed":true,"internalType":"address"}],"anonymous":false},{"type":"event","name":"Transfer","inputs":[{"name":"from","type":"address","indexed":true,"internalType":"address"},{"name":"to","type":"address","indexed":true,"internalType":"address"},{"name":"id","type":"uint256","indexed":true,"internalType":"uint256"}],"anonymous":false},{"type":"error","name":"AlreadyExists","inputs":[]},{"type":"error","name":"InvalidRecipient","inputs":[]},{"type":"error","name":"InvalidSender","inputs":[]},{"type":"error","name":"MustBeFractionalizedAmount","inputs":[]},{"type":"error","name":"NotFound","inputs":[]},{"type":"error","name":"OwnableInvalidOwner","inputs":[{"name":"owner","type":"address","internalType":"address"}]},{"type":"error","name":"OwnableUnauthorizedAccount","inputs":[{"name":"account","type":"address","internalType":"address"}]},{"type":"error","name":"TotalSupplyExceeded","inputs":[]},{"type":"error","name":"Unauthorized","inputs":[]},{"type":"error","name":"UnsafeRecipient","inputs":[]}],"bytecode":{"object":"0x60e06040523480156200001157600080fd5b506040516200281a3803806200281a8339810160408190526200003491620001f4565b8484601284846001600160a01b0381166200006957604051631e4fbdf760e01b81526000600482015260240160405180910390fd5b6200007481620000dc565b50600162000083858262000344565b50600262000092848262000344565b5060ff8216608052620000a782600a62000525565b60c0819052620000b890826200053d565b60a05250600b9250620000d091508590508262000344565b50505050505062000557565b600080546001600160a01b038381166001600160a01b0319831681178455604051919092169283917f8be0079c531659141344cd1fd0a4f28419497f9722a3daafe3b4186f6b6457e09190a35050565b634e487b7160e01b600052604160045260246000fd5b600082601f8301126200015457600080fd5b81516001600160401b03808211156200017157620001716200012c565b604051601f8301601f19908116603f011681019082821181831017156200019c576200019c6200012c565b8160405283815260209250866020858801011115620001ba57600080fd5b600091505b83821015620001de5785820183015181830184015290820190620001bf565b6000602085830101528094505050505092915050565b600080600080600060a086880312156200020d57600080fd5b85516001600160401b03808211156200022557600080fd5b6200023389838a0162000142565b965060208801519150808211156200024a57600080fd5b6200025889838a0162000142565b955060408801519150808211156200026f57600080fd5b506200027e8882890162000142565b60608801516080890151919550935090506001600160a01b0381168114620002a557600080fd5b809150509295509295909350565b600181811c90821680620002c857607f821691505b602082108103620002e957634e487b7160e01b600052602260045260246000fd5b50919050565b601f8211156200033f576000816000526020600020601f850160051c810160208610156200031a5750805b601f850160051c820191505b818110156200033b5782815560010162000326565b5050505b505050565b81516001600160401b038111156200036057620003606200012c565b6200037881620003718454620002b3565b84620002ef565b602080601f831160018114620003b05760008415620003975750858301515b600019600386901b1c1916600185901b1785556200033b565b600085815260208120601f198616915b82811015620003e157888601518255948401946001909101908401620003c0565b5085821015620004005787850151600019600388901b60f8161c191681555b5050505050600190811b01905550565b634e487b7160e01b600052601160045260246000fd5b600181815b80851115620004675781600019048211156200044b576200044b62000410565b808516156200045957918102915b93841c93908002906200042b565b509250929050565b60008262000480575060016200051f565b816200048f575060006200051f565b8160018114620004a85760028114620004b357620004d3565b60019150506200051f565b60ff841115620004c757620004c762000410565b50506001821b6200051f565b5060208310610133831016604e8410600b8410161715620004f8575081810a6200051f565b62000504838362000426565b80600019048211156200051b576200051b62000410565b0290505b92915050565b60006200053660ff8416836200046f565b9392505050565b80820281158282048414176200051f576200051f62000410565b60805160a05160c051612246620005d46000396000818161086c015281816108bd01528181610aab015281816110410152818161106b0152818161120c0152818161145e01528181611488015281816114de015261152201526000818161023e01528181610f6c015261122d0152600061028801526122466000f3fe608060405234801561001057600080fd5b50600436106101a35760003560e01c806370a08231116100ee578063a9059cbb11610097578063c87b56dd11610071578063c87b56dd1461040d578063dd62ed3e14610420578063e985e9c51461044b578063f2fde38b1461047957600080fd5b8063a9059cbb146103d4578063b88d4fde146103e7578063be29184f146103fa57600080fd5b80638da5cb5b116100c85780638da5cb5b146103a857806395d89b41146103b9578063a22cb465146103c157600080fd5b806370a0823114610350578063715018a614610370578063771282f61461037857600080fd5b8063313ce5671161015057806355f804b31161012a57806355f804b31461030c5780636352211e1461031f5780636c0360eb1461034857600080fd5b8063313ce5671461028357806342842e0e146102bc5780634f02c420146102cf57600080fd5b8063095ea7b311610181578063095ea7b31461022657806318160ddd1461023957806323b872dd1461026e57600080fd5b806301ffc9a7146101a857806306fdde03146101d0578063081812fc146101e5575b600080fd5b6101bb6101b6366004611b64565b61048c565b60405190151581526020015b60405180910390f35b6101d86104e8565b6040516101c79190611ba5565b61020e6101f3366004611bf6565b6006602052600090815260409020546001600160a01b031681565b6040516001600160a01b0390911681526020016101c7565b6101bb610234366004611c26565b610576565b6102607f000000000000000000000000000000000000000000000000000000000000000081565b6040519081526020016101c7565b61028161027c366004611c50565b61070b565b005b6102aa7f000000000000000000000000000000000000000000000000000000000000000081565b60405160ff90911681526020016101c7565b6102816102ca366004611c50565b610b6d565b6003546102eb906fffffffffffffffffffffffffffffffff1681565b6040516fffffffffffffffffffffffffffffffff90911681526020016101c7565b61028161031a366004611cbb565b610c8c565b61020e61032d366004611bf6565b6000908152600860205260409020546001600160a01b031690565b6101d8610d0b565b61026061035e366004611d8a565b60046020526000908152604090205481565b610281610d18565b6003546102eb9070010000000000000000000000000000000090046fffffffffffffffffffffffffffffffff1681565b6000546001600160a01b031661020e565b6101d8610d2c565b6102816103cf366004611da5565b610d39565b6101bb6103e2366004611c26565b610dc3565b6102816103f5366004611de1565b610dd7565b610281610408366004611e7c565b610ee4565b6101d861041b366004611bf6565b611113565b61026061042e366004611ebd565b600560209081526000928352604080842090915290825290205481565b6101bb610459366004611ebd565b600760209081526000928352604080842090915290825290205460ff1681565b610281610487366004611d8a565b6112b2565b60007fffffffff0000000000000000000000000000000000000000000000000000000082167f490649060000000000000000000000000000000000000000000000000000000014806104e257506104e28261130e565b92915050565b600180546104f590611ef0565b80601f016020809104026020016040519081016040528092919081815260200182805461052190611ef0565b801561056e5780601f106105435761010080835404028352916020019161056e565b820191906000526020600020905b81548152906001019060200180831161055157829003601f168201915b505050505081565b6003546000906fffffffffffffffffffffffffffffffff16821180159061059d5750600082115b156106a6576000828152600860205260409020546001600160a01b03163381148015906105ee57506001600160a01b038116600090815260076020908152604080832033845290915290205460ff16155b15610625576040517f82b4290000000000000000000000000000000000000000000000000000000000815260040160405180910390fd5b60008381526006602090815260409182902080547fffffffffffffffffffffffff0000000000000000000000000000000000000000166001600160a01b038881169182179092559251868152908416917f8c5be1e5ebec7d5bd14f71427d1e84f3dd0314c0f7b2291e5b200ac8c7c3b925910160405180910390a350610702565b3360008181526005602090815260408083206001600160a01b03881680855290835292819020869055518581529192917f8c5be1e5ebec7d5bd14f71427d1e84f3dd0314c0f7b2291e5b200ac8c7c3b925910160405180910390a35b50600192915050565b6003546fffffffffffffffffffffffffffffffff168111610ae7576000818152600860205260409020546001600160a01b03848116911614610779576040517fddb5de5e00000000000000000000000000000000000000000000000000000000815260040160405180910390fd5b6001600160a01b0382166107b9576040517f9c8d2cd200000000000000000000000000000000000000000000000000000000815260040160405180910390fd5b336001600160a01b038416148015906107f657506001600160a01b038316600090815260076020908152604080832033845290915290205460ff16155b801561081957506000818152600660205260409020546001600160a01b03163314155b15610850576040517f82b4290000000000000000000000000000000000000000000000000000000000815260040160405180910390fd5b6001600160a01b038316600090815260046020526040812080547f00000000000000000000000000000000000000000000000000000000000000009290610898908490611f72565b90915550506001600160a01b03808316600081815260046020908152604080832080547f00000000000000000000000000000000000000000000000000000000000000000190558583526008825280832080547fffffffffffffffffffffffff00000000000000000000000000000000000000009081169095179055600682528083208054909416909355928616815260099092528120805461093d90600190611f72565b8154811061094d5761094d611f85565b60009182526020808320909101546001600160a01b0387168352600982526040808420868552600a9093529092205481549293508392811061099157610991611f85565b60009182526020808320909101929092556001600160a01b03861681526009909152604090208054806109c6576109c6611fb4565b600082815260208082208301600019908101839055909201909255838252600a8152604080832054848452818420556001600160a01b038616808452600983529083208054600181810183558286529385200186905592529054610a2a9190611f72565b6000838152600a602052604080822092909255905183916001600160a01b0380871692908816917fddf252ad1be2c89b69c2b068fc378daa952ba7f163c4a11628f55a4df523b3ef91a4826001600160a01b0316846001600160a01b03167fe59fdd36d0d223c0c7d996db7ad796880f45e1936cb0bb7ac102e7082e0314877f0000000000000000000000000000000000000000000000000000000000000000604051610ad991815260200190565b60405180910390a350505050565b6001600160a01b03831660009081526005602090815260408083203384529091529020546000198114801590610b265750336001600160a01b03851614155b15610b5a57610b358282611f72565b6001600160a01b03851660009081526005602090815260408083203384529091529020555b610b658484846113f1565b50505b505050565b610b7883838361070b565b6001600160a01b0382163b15801590610c5557506040517f150b7a02000000000000000000000000000000000000000000000000000000008082523360048301526001600160a01b03858116602484015260448301849052608060648401526000608484015290919084169063150b7a029060a4016020604051808303816000875af1158015610c0c573d6000803e3d6000fd5b505050506040513d601f19601f82011682018060405250810190610c309190611fe3565b7fffffffff000000000000000000000000000000000000000000000000000000001614155b15610b68576040517f3da6393100000000000000000000000000000000000000000000000000000000815260040160405180910390fd5b610c946115ca565b6000600b8054610ca390611ef0565b90501115610cfb5760035460408051600181526fffffffffffffffffffffffffffffffff90921660208301527f6bd5c950a8d8df17f772f5af37cb3655737899cbf903264b9795592da439661c910160405180910390a15b600b610d078282612050565b5050565b600b80546104f590611ef0565b610d206115ca565b610d2a6000611610565b565b600280546104f590611ef0565b3360008181526007602090815260408083206001600160a01b0387168085529083529281902080547fffffffffffffffffffffffffffffffffffffffffffffffffffffffffffffff001686151590811790915590519081529192917f17307eab39ab6107e8899845ad3d59bd9653f200f220920489ca2b5937696c31910160405180910390a35050565b6000610dd03384846113f1565b9392505050565b610de285858561070b565b6001600160a01b0384163b15801590610ead57506040517f150b7a0200000000000000000000000000000000000000000000000000000000808252906001600160a01b0386169063150b7a0290610e459033908a9089908990899060040161212e565b6020604051808303816000875af1158015610e64573d6000803e3d6000fd5b505050506040513d601f19601f82011682018060405250810190610e889190611fe3565b7fffffffff000000000000000000000000000000000000000000000000000000001614155b15610b65576040517f3da6393100000000000000000000000000000000000000000000000000000000815260040160405180910390fd5b610eec6115ca565b6003546fffffffffffffffffffffffffffffffff90811690821611610f3d576040517ff0e9e6d400000000000000000000000000000000000000000000000000000000815260040160405180910390fd5b600354610f909070010000000000000000000000000000000090046fffffffffffffffffffffffffffffffff167f0000000000000000000000000000000000000000000000000000000000000000611f72565b816fffffffffffffffffffffffffffffffff161115610fdb576040517ffd59427a00000000000000000000000000000000000000000000000000000000815260040160405180910390fd5b6001600160a01b03821660009081526004602052604081208054600380547001000000000000000000000000000000008082046fffffffffffffffffffffffffffffffff90811688018116909102918116919091179091558416810191829055916110667f0000000000000000000000000000000000000000000000000000000000000000846121cf565b6110907f0000000000000000000000000000000000000000000000000000000000000000846121cf565b61109a9190611f72565b905060005b818110156110b8576110b086611678565b60010161109f565b506040516fffffffffffffffffffffffffffffffff851681526001600160a01b038616906000907fe59fdd36d0d223c0c7d996db7ad796880f45e1936cb0bb7ac102e7082e0314879060200160405180910390a35050505050565b606061111e82611807565b506000600b805461112e90611ef0565b80601f016020809104026020016040519081016040528092919081815260200182805461115a90611ef0565b80156111a75780601f1061117c576101008083540402835291602001916111a7565b820191906000526020600020905b81548152906001019060200180831161118a57829003601f168201915b5050505050905060008151111561129c576000836040516020016111cd91815260200190565b604080517fffffffffffffffffffffffffffffffffffffffffffffffffffffffffffffffe08184030181529190528051602090910120905060006112517f00000000000000000000000000000000000000000000000000000000000000007f00000000000000000000000000000000000000000000000000000000000000006121cf565b61125b90836121e3565b6112669060016121f7565b9050826112728261185b565b60405160200161128392919061220a565b6040516020818303038152906040529350505050919050565b5050604080516020810190915260008152919050565b6112ba6115ca565b6001600160a01b038116611302576040517f1e4fbdf7000000000000000000000000000000000000000000000000000000008152600060048201526024015b60405180910390fd5b61130b81611610565b50565b60007fffffffff0000000000000000000000000000000000000000000000000000000082167f36372b070000000000000000000000000000000000000000000000000000000014806113a157507fffffffff0000000000000000000000000000000000000000000000000000000082167f80ac58cd00000000000000000000000000000000000000000000000000000000145b806104e257507f01ffc9a7000000000000000000000000000000000000000000000000000000007fffffffff000000000000000000000000000000000000000000000000000000008316146104e2565b6001600160a01b0380841660008181526004602052604080822080549487168352908220549282529092919084908461142a8386611f72565b90915550506001600160a01b03858116600090815260046020526040808220805488019055918816815290812054611483907f0000000000000000000000000000000000000000000000000000000000000000906121cf565b6114ad7f0000000000000000000000000000000000000000000000000000000000000000856121cf565b6114b79190611f72565b905060005b818110156114d5576114cd886118fb565b6001016114bc565b505060006115037f0000000000000000000000000000000000000000000000000000000000000000836121cf565b6001600160a01b038716600090815260046020526040902054611547907f0000000000000000000000000000000000000000000000000000000000000000906121cf565b6115519190611f72565b905060005b8181101561156f5761156787611678565b600101611556565b5050846001600160a01b0316866001600160a01b03167fe59fdd36d0d223c0c7d996db7ad796880f45e1936cb0bb7ac102e7082e031487866040516115b691815260200190565b60405180910390a350600195945050505050565b6000546001600160a01b03163314610d2a576040517f118cdaa70000000000000000000000000000000000000000000000000000000081523360048201526024016112f9565b600080546001600160a01b038381167fffffffffffffffffffffffff0000000000000000000000000000000000000000831681178455604051919092169283917f8be0079c531659141344cd1fd0a4f28419497f9722a3daafe3b4186f6b6457e09190a35050565b6001600160a01b0381166116b8576040517f9c8d2cd200000000000000000000000000000000000000000000000000000000815260040160405180910390fd5b600380546fffffffffffffffffffffffffffffffff808216600101167fffffffffffffffffffffffffffffffff0000000000000000000000000000000090911681179091556000818152600860205260409020546001600160a01b03161561174c576040517f23369fa600000000000000000000000000000000000000000000000000000000815260040160405180910390fd5b600081815260086020908152604080832080547fffffffffffffffffffffffff0000000000000000000000000000000000000000166001600160a01b0387169081179091558084526009835290832080546001818101835582865293852001859055925290546117bc9190611f72565b6000828152600a602052604080822092909255905182916001600160a01b038516917fddf252ad1be2c89b69c2b068fc378daa952ba7f163c4a11628f55a4df523b3ef908290a45050565b6000818152600860205260409020546001600160a01b031680611856576040517fc5723b5100000000000000000000000000000000000000000000000000000000815260040160405180910390fd5b919050565b6060600061186883611a54565b600101905060008167ffffffffffffffff81111561188857611888611c8c565b6040519080825280601f01601f1916602001820160405280156118b2576020820181803683370190505b5090508181016020015b600019017f3031323334353637383961626364656600000000000000000000000000000000600a86061a8153600a85049450846118bc57509392505050565b6001600160a01b03811661193b576040517fddb5de5e00000000000000000000000000000000000000000000000000000000815260040160405180910390fd5b6001600160a01b0381166000908152600960205260408120805461196190600190611f72565b8154811061197157611971611f85565b9060005260206000200154905060096000836001600160a01b03166001600160a01b031681526020019081526020016000208054806119b2576119b2611fb4565b600082815260208082208301600019908101839055909201909255828252600a815260408083208390556008825280832080547fffffffffffffffffffffffff000000000000000000000000000000000000000090811690915560069092528083208054909216909155518291906001600160a01b038516907fddf252ad1be2c89b69c2b068fc378daa952ba7f163c4a11628f55a4df523b3ef908390a45050565b6000807a184f03e93ff9f4daa797ed6e38ed64bf6a1f0100000000000000008310611a9d577a184f03e93ff9f4daa797ed6e38ed64bf6a1f010000000000000000830492506040015b6d04ee2d6d415b85acef81000000008310611ac9576d04ee2d6d415b85acef8100000000830492506020015b662386f26fc100008310611ae757662386f26fc10000830492506010015b6305f5e1008310611aff576305f5e100830492506008015b6127108310611b1357612710830492506004015b60648310611b25576064830492506002015b600a83106104e25760010192915050565b7fffffffff000000000000000000000000000000000000000000000000000000008116811461130b57600080fd5b600060208284031215611b7657600080fd5b8135610dd081611b36565b60005b83811015611b9c578181015183820152602001611b84565b50506000910152565b6020815260008251806020840152611bc4816040850160208701611b81565b601f017fffffffffffffffffffffffffffffffffffffffffffffffffffffffffffffffe0169190910160400192915050565b600060208284031215611c0857600080fd5b5035919050565b80356001600160a01b038116811461185657600080fd5b60008060408385031215611c3957600080fd5b611c4283611c0f565b946020939093013593505050565b600080600060608486031215611c6557600080fd5b611c6e84611c0f565b9250611c7c60208501611c0f565b9150604084013590509250925092565b7f4e487b7100000000000000000000000000000000000000000000000000000000600052604160045260246000fd5b600060208284031215611ccd57600080fd5b813567ffffffffffffffff80821115611ce557600080fd5b818401915084601f830112611cf957600080fd5b813581811115611d0b57611d0b611c8c565b604051601f82017fffffffffffffffffffffffffffffffffffffffffffffffffffffffffffffffe0908116603f01168101908382118183101715611d5157611d51611c8c565b81604052828152876020848701011115611d6a57600080fd5b826020860160208301376000928101602001929092525095945050505050565b600060208284031215611d9c57600080fd5b610dd082611c0f565b60008060408385031215611db857600080fd5b611dc183611c0f565b915060208301358015158114611dd657600080fd5b809150509250929050565b600080600080600060808688031215611df957600080fd5b611e0286611c0f565b9450611e1060208701611c0f565b935060408601359250606086013567ffffffffffffffff80821115611e3457600080fd5b818801915088601f830112611e4857600080fd5b813581811115611e5757600080fd5b896020828501011115611e6957600080fd5b9699959850939650602001949392505050565b60008060408385031215611e8f57600080fd5b611e9883611c0f565b915060208301356fffffffffffffffffffffffffffffffff81168114611dd657600080fd5b60008060408385031215611ed057600080fd5b611ed983611c0f565b9150611ee760208401611c0f565b90509250929050565b600181811c90821680611f0457607f821691505b602082108103611f3d577f4e487b7100000000000000000000000000000000000000000000000000000000600052602260045260246000fd5b50919050565b7f4e487b7100000000000000000000000000000000000000000000000000000000600052601160045260246000fd5b818103818111156104e2576104e2611f43565b7f4e487b7100000000000000000000000000000000000000000000000000000000600052603260045260246000fd5b7f4e487b7100000000000000000000000000000000000000000000000000000000600052603160045260246000fd5b600060208284031215611ff557600080fd5b8151610dd081611b36565b601f821115610b68576000816000526020600020601f850160051c810160208610156120295750805b601f850160051c820191505b8181101561204857828155600101612035565b505050505050565b815167ffffffffffffffff81111561206a5761206a611c8c565b61207e816120788454611ef0565b84612000565b602080601f8311600181146120b3576000841561209b5750858301515b600019600386901b1c1916600185901b178555612048565b6000858152602081207fffffffffffffffffffffffffffffffffffffffffffffffffffffffffffffffe08616915b82811015612100578886015182559484019460019091019084016120e1565b508582101561211e5787850151600019600388901b60f8161c191681555b5050505050600190811b01905550565b60006001600160a01b03808816835280871660208401525084604083015260806060830152826080830152828460a0840137600060a0848401015260a07fffffffffffffffffffffffffffffffffffffffffffffffffffffffffffffffe0601f85011683010190509695505050505050565b7f4e487b7100000000000000000000000000000000000000000000000000000000600052601260045260246000fd5b6000826121de576121de6121a0565b500490565b6000826121f2576121f26121a0565b500690565b808201808211156104e2576104e2611f43565b6000835161221c818460208801611b81565b835190830190612230818360208801611b81565b0194935050505056fea164736f6c6343000818000a","linkReferences":{}},"methodIdentifiers":{"allowance(address,address)":"dd62ed3e","approve(address,uint256)":"095ea7b3","balanceOf(address)":"70a08231","baseURI()":"6c0360eb","currentSupply()":"771282f6","decimals()":"313ce567","getApproved(uint256)":"081812fc","isApprovedForAll(address,address)":"e985e9c5","mint(address,uint128)":"be29184f","minted()":"4f02c420","name()":"06fdde03","owner()":"8da5cb5b","ownerOf(uint256)":"6352211e","renounceOwnership()":"715018a6","safeTransferFrom(address,address,uint256)":"42842e0e","safeTransferFrom(address,address,uint256,bytes)":"b88d4fde","setApprovalForAll(address,bool)":"a22cb465","setBaseURI(string)":"55f804b3","supportsInterface(bytes4)":"01ffc9a7","symbol()":"95d89b41","tokenURI(uint256)":"c87b56dd","totalSupply()":"18160ddd","transfer(address,uint256)":"a9059cbb","transferFrom(address,address,uint256)":"23b872dd","transferOwnership(address)":"f2fde38b"},"id":38}