{
  "abi": [
    {
      "type": "constructor",
      "inputs": [
        {
          "name": "vault_",
          "type": "address",
          "internalType": "address"
        },
        {
          "name": "deploymentFee_",
          "type": "uint128",
          "internalType": "uint128"
        },
        {
          "name": "admin_",
          "type": "address",
          "internalType": "address"
        },
        {
          "name": "freePeriod_",
          "type": "tuple",
          "internalType": "struct Factory.FreePeriod",
          "components": [
            {
              "name": "start",
              "type": "uint64",
              "internalType": "uint64"
            },
            {
              "name": "end",
              "type": "uint64",
              "internalType": "uint64"
            }
          ]
        }
      ],
      "stateMutability": "nonpayable"
    },
    {
      "type": "function",
      "name": "deployERC404",
      "inputs": [
        {
          "name": "name",
          "type": "string",
          "internalType": "string"
        },
        {
          "name": "symbol",
          "type": "string",
          "internalType": "string"
        },
        {
          "name": "baseURI",
          "type": "string",
          "internalType": "string"
        },
        {
          "name": "totalNFTSupply",
          "type": "uint256",
          "internalType": "uint256"
        }
      ],
      "outputs": [
        {
          "name": "",
          "type": "address",
          "internalType": "address"
        }
      ],
      "stateMutability": "payable"
    },
    {
      "type": "function",
      "name": "deploymentFee",
      "inputs": [],
      "outputs": [
        {
          "name": "",
          "type": "uint128",
          "internalType": "uint128"
        }
      ],
      "stateMutability": "view"
    },
    {
      "type": "function",
      "name": "deploymentFeeForUser",
      "inputs": [
        {
          "name": "user",
          "type": "address",
          "internalType": "address"
        }
      ],
      "outputs": [
        {
          "name": "",
          "type": "uint128",
          "internalType": "uint128"
        }
      ],
      "stateMutability": "view"
    },
    {
      "type": "function",
      "name": "deploymentsOf",
      "inputs": [
        {
          "name": "owner",
          "type": "address",
          "internalType": "address"
        }
      ],
      "outputs": [
        {
          "name": "",
          "type": "address[]",
          "internalType": "address[]"
        }
      ],
      "stateMutability": "view"
    },
    {
      "type": "function",
      "name": "freePeriod",
      "inputs": [],
      "outputs": [
        {
          "name": "",
          "type": "tuple",
          "internalType": "struct Factory.FreePeriod",
          "components": [
            {
              "name": "start",
              "type": "uint64",
              "internalType": "uint64"
            },
            {
              "name": "end",
              "type": "uint64",
              "internalType": "uint64"
            }
          ]
        }
      ],
      "stateMutability": "view"
    },
    {
      "type": "function",
      "name": "owner",
      "inputs": [],
      "outputs": [
        {
          "name": "",
          "type": "address",
          "internalType": "address"
        }
      ],
      "stateMutability": "view"
    },
    {
      "type": "function",
      "name": "renounceOwnership",
      "inputs": [],
      "outputs": [],
      "stateMutability": "nonpayable"
    },
    {
      "type": "function",
      "name": "setDeploymentFee",
      "inputs": [
        {
          "name": "newDeploymentFee",
          "type": "uint128",
          "internalType": "uint128"
        }
      ],
      "outputs": [],
      "stateMutability": "nonpayable"
    },
    {
      "type": "function",
      "name": "setFreePeriod",
      "inputs": [
        {
          "name": "newFreePeriod",
          "type": "tuple",
          "internalType": "struct Factory.FreePeriod",
          "components": [
            {
              "name": "start",
              "type": "uint64",
              "internalType": "uint64"
            },
            {
              "name": "end",
              "type": "uint64",
              "internalType": "uint64"
            }
          ]
        }
      ],
      "outputs": [],
      "stateMutability": "nonpayable"
    },
    {
      "type": "function",
      "name": "transferOwnership",
      "inputs": [
        {
          "name": "newOwner",
          "type": "address",
          "internalType": "address"
        }
      ],
      "outputs": [],
      "stateMutability": "nonpayable"
    },
    {
      "type": "function",
      "name": "vault",
      "inputs": [],
      "outputs": [
        {
          "name": "",
          "type": "address",
          "internalType": "address"
        }
      ],
      "stateMutability": "view"
    },
    {
      "type": "event",
      "name": "DeploymentFeeChanged",
      "inputs": [
        {
          "name": "oldDeploymentFee",
          "type": "uint128",
          "indexed": false,
          "internalType": "uint128"
        },
        {
          "name": "newDeploymentFee",
          "type": "uint128",
          "indexed": false,
          "internalType": "uint128"
        }
      ],
      "anonymous": false
    },
    {
      "type": "event",
      "name": "ERC404Deployed",
      "inputs": [
        {
          "name": "deployer",
          "type": "address",
          "indexed": true,
          "internalType": "address"
        },
        {
          "name": "erc404",
          "type": "address",
          "indexed": true,
          "internalType": "address"
        }
      ],
      "anonymous": false
    },
    {
      "type": "event",
      "name": "FreePeriodChanged",
      "inputs": [
        {
          "name": "newFreePeriod",
          "type": "tuple",
          "indexed": false,
          "internalType": "struct Factory.FreePeriod",
          "components": [
            {
              "name": "start",
              "type": "uint64",
              "internalType": "uint64"
            },
            {
              "name": "end",
              "type": "uint64",
              "internalType": "uint64"
            }
          ]
        }
      ],
      "anonymous": false
    },
    {
      "type": "event",
      "name": "OwnershipTransferred",
      "inputs": [
        {
          "name": "previousOwner",
          "type": "address",
          "indexed": true,
          "internalType": "address"
        },
        {
          "name": "newOwner",
          "type": "address",
          "indexed": true,
          "internalType": "address"
        }
      ],
      "anonymous": false
    },
    {
      "type": "error",
      "name": "EndTimeTooSmall",
      "inputs": []
    },
    {
      "type": "error",
      "name": "InsufficientDeploymentFee",
      "inputs": []
    },
    {
      "type": "error",
      "name": "OwnableInvalidOwner",
      "inputs": [
        {
          "name": "owner",
          "type": "address",
          "internalType": "address"
        }
      ]
    },
    {
      "type": "error",
      "name": "OwnableUnauthorizedAccount",
      "inputs": [
        {
          "name": "account",
          "type": "address",
          "internalType": "address"
        }
      ]
    },
    {
      "type": "error",
      "name": "StartTimeTooBig",
      "inputs": []
    }
  ],
  "bytecode": {
    "object": "0x60a06040523480156200001157600080fd5b506040516200375a3803806200375a83398101604081905262000034916200022b565b816001600160a01b0381166200006457604051631e4fbdf760e01b81526000600482015260240160405180910390fd5b6200006f81620000ad565b506001600160a01b038416608052600280546001600160801b0319166001600160801b038516179055620000a381620000fd565b50505050620002f4565b600080546001600160a01b038381166001600160a01b0319831681178455604051919092169283917f8be0079c531659141344cd1fd0a4f28419497f9722a3daafe3b4186f6b6457e09190a35050565b60208101516001600160401b0316156200017c5780602001516001600160401b031681600001516001600160401b031611156200014d57604051630e85f3a560e41b815260040160405180910390fd5b4281602001516001600160401b031610156200017c57604051634d13eed160e11b815260040160405180910390fd5b805160018054602080850180516001600160401b0390811668010000000000000000026001600160801b031990941695811695861793909317909355604080519485529251909116908301527f1aee559dac09d22b68d43c47db7fc6e12bcd2d077d5f2bfe3101aa3688bb7fe6910160405180910390a150565b80516001600160a01b03811681146200020e57600080fd5b919050565b80516001600160401b03811681146200020e57600080fd5b60008060008084860360a08112156200024357600080fd5b6200024e86620001f6565b60208701519095506001600160801b03811681146200026c57600080fd5b93506200027c60408701620001f6565b92506040605f19820112156200029157600080fd5b50604080519081016001600160401b0381118282101715620002c357634e487b7160e01b600052604160045260246000fd5b604052620002d46060870162000213565b8152620002e46080870162000213565b6020820152939692955090935050565b60805161344362000317600039600081816102e7015261046a01526134436000f3fe608060405260043610620000cb5760003560e01c8063b433d112116200007d578063f2cff57f1162000054578063f2cff57f1462000285578063f2fde38b14620002ae578063fbfa77cf14620002d357600080fd5b8063b433d11214620001d3578063d6f2b6b0146200023b578063e5eaf1a1146200026057600080fd5b80634217f75711620000b25780634217f7571462000158578063715018a6146200018c5780638da5cb5b14620001a657600080fd5b806307494a0114620000d057806336c43af71462000111575b600080fd5b620000e7620000e136600462000ab8565b62000309565b60405173ffffffffffffffffffffffffffffffffffffffff90911681526020015b60405180910390f35b3480156200011e57600080fd5b50620001366200013036600462000b52565b62000532565b6040516fffffffffffffffffffffffffffffffff909116815260200162000108565b3480156200016557600080fd5b506200017d6200017736600462000b52565b62000596565b60405162000108919062000b91565b3480156200019957600080fd5b50620001a462000628565b005b348015620001b357600080fd5b5060005473ffffffffffffffffffffffffffffffffffffffff16620000e7565b348015620001e057600080fd5b5060408051808201825260008082526020918201528151808301835260015467ffffffffffffffff80821680845268010000000000000000909204811692840192835284519182529151909116918101919091520162000108565b3480156200024857600080fd5b50620001a46200025a36600462000c0b565b62000640565b3480156200026d57600080fd5b50620001a46200027f36600462000c6e565b62000658565b3480156200029257600080fd5b506002546fffffffffffffffffffffffffffffffff1662000136565b348015620002bb57600080fd5b50620001a4620002cd36600462000b52565b620006f5565b348015620002e057600080fd5b50620000e77f000000000000000000000000000000000000000000000000000000000000000081565b600080620003173362000532565b9050806fffffffffffffffffffffffffffffffff1634101562000366576040517fa8c0ba0200000000000000000000000000000000000000000000000000000000815260040160405180910390fd5b600086868686336040516200037b90620009c8565b6200038b95949392919062000d08565b604051809103906000f080158015620003a8573d6000803e3d6000fd5b50336000818152600360209081526040808320805460018101825590845291832090910180547fffffffffffffffffffffffff00000000000000000000000000000000000000001673ffffffffffffffffffffffffffffffffffffffff86169081179091559051939450927fbef7cdce30f5e57142cbca4b7bbbc2e79f3a24c3ef6d3f72a52e6f385dc4d49e9190a36fffffffffffffffffffffffffffffffff821615620004c75760405173ffffffffffffffffffffffffffffffffffffffff7f000000000000000000000000000000000000000000000000000000000000000016906fffffffffffffffffffffffffffffffff841680156108fc02916000818181858888f19350505050158015620004c5573d6000803e3d6000fd5b505b816fffffffffffffffffffffffffffffffff1634111562000528576040513390346fffffffffffffffffffffffffffffffff85168181146108fc02929103906000818181858888f1935050505015801562000526573d6000803e3d6000fd5b505b9695505050505050565b60006200053e62000760565b80156200056e575073ffffffffffffffffffffffffffffffffffffffff8216600090815260036020526040902054155b156200057c57506000919050565b50506002546fffffffffffffffffffffffffffffffff1690565b73ffffffffffffffffffffffffffffffffffffffff81166000908152600360209081526040918290208054835181840281018401909452808452606093928301828280156200061c57602002820191906000526020600020905b815473ffffffffffffffffffffffffffffffffffffffff168152600190910190602001808311620005f0575b50505050509050919050565b62000632620007b6565b6200063e60006200080b565b565b6200064a620007b6565b620006558162000880565b50565b62000662620007b6565b600254604080516fffffffffffffffffffffffffffffffff928316815291831660208301527fa78518a8fb82351d7a1b370c6c4c1f36be9de72bbacbb3a758a174afbad48613910160405180910390a1600280547fffffffffffffffffffffffffffffffff00000000000000000000000000000000166fffffffffffffffffffffffffffffffff92909216919091179055565b620006ff620007b6565b73ffffffffffffffffffffffffffffffffffffffff811662000755576040517f1e4fbdf7000000000000000000000000000000000000000000000000000000008152600060048201526024015b60405180910390fd5b62000655816200080b565b6040805180820190915260015467ffffffffffffffff80821680845268010000000000000000909204166020830152600091904210801590620007b05750806020015167ffffffffffffffff1642105b91505090565b60005473ffffffffffffffffffffffffffffffffffffffff1633146200063e576040517f118cdaa70000000000000000000000000000000000000000000000000000000081523360048201526024016200074c565b6000805473ffffffffffffffffffffffffffffffffffffffff8381167fffffffffffffffffffffffff0000000000000000000000000000000000000000831681178455604051919092169283917f8be0079c531659141344cd1fd0a4f28419497f9722a3daafe3b4186f6b6457e09190a35050565b602081015167ffffffffffffffff16156200093557806020015167ffffffffffffffff16816000015167ffffffffffffffff161115620008ec576040517fe85f3a5000000000000000000000000000000000000000000000000000000000815260040160405180910390fd5b42816020015167ffffffffffffffff16101562000935576040517f9a27dda200000000000000000000000000000000000000000000000000000000815260040160405180910390fd5b8051600180546020808501805167ffffffffffffffff90811668010000000000000000027fffffffffffffffffffffffffffffffff0000000000000000000000000000000090941695811695861793909317909355604080519485529251909116908301527f1aee559dac09d22b68d43c47db7fc6e12bcd2d077d5f2bfe3101aa3688bb7fe6910160405180910390a150565b6126c08062000d7783390190565b7f4e487b7100000000000000000000000000000000000000000000000000000000600052604160045260246000fd5b600082601f83011262000a1757600080fd5b813567ffffffffffffffff8082111562000a355762000a35620009d6565b604051601f83017fffffffffffffffffffffffffffffffffffffffffffffffffffffffffffffffe0908116603f0116810190828211818310171562000a7e5762000a7e620009d6565b8160405283815286602085880101111562000a9857600080fd5b836020870160208301376000602085830101528094505050505092915050565b6000806000806080858703121562000acf57600080fd5b843567ffffffffffffffff8082111562000ae857600080fd5b62000af68883890162000a05565b9550602087013591508082111562000b0d57600080fd5b62000b1b8883890162000a05565b9450604087013591508082111562000b3257600080fd5b5062000b418782880162000a05565b949793965093946060013593505050565b60006020828403121562000b6557600080fd5b813573ffffffffffffffffffffffffffffffffffffffff8116811462000b8a57600080fd5b9392505050565b6020808252825182820181905260009190848201906040850190845b8181101562000be157835173ffffffffffffffffffffffffffffffffffffffff168352928401929184019160010162000bad565b50909695505050505050565b803567ffffffffffffffff8116811462000c0657600080fd5b919050565b60006040828403121562000c1e57600080fd5b6040516040810181811067ffffffffffffffff8211171562000c445762000c44620009d6565b60405262000c528362000bed565b815262000c626020840162000bed565b60208201529392505050565b60006020828403121562000c8157600080fd5b81356fffffffffffffffffffffffffffffffff8116811462000b8a57600080fd5b6000815180845260005b8181101562000cca5760208185018101518683018201520162000cac565b5060006020828601015260207fffffffffffffffffffffffffffffffffffffffffffffffffffffffffffffffe0601f83011685010191505092915050565b60a08152600062000d1d60a083018862000ca2565b828103602084015262000d31818862000ca2565b9050828103604084015262000d47818762000ca2565b91505083606083015273ffffffffffffffffffffffffffffffffffffffff83166080830152969550505050505056fe60e06040523480156200001157600080fd5b50604051620026c0380380620026c08339810160408190526200003491620001f4565b8484601284846001600160a01b0381166200006957604051631e4fbdf760e01b81526000600482015260240160405180910390fd5b6200007481620000dc565b50600162000083858262000344565b50600262000092848262000344565b5060ff8216608052620000a782600a62000525565b60c0819052620000b890826200053d565b60a05250600b9250620000d091508590508262000344565b50505050505062000557565b600080546001600160a01b038381166001600160a01b0319831681178455604051919092169283917f8be0079c531659141344cd1fd0a4f28419497f9722a3daafe3b4186f6b6457e09190a35050565b634e487b7160e01b600052604160045260246000fd5b600082601f8301126200015457600080fd5b81516001600160401b03808211156200017157620001716200012c565b604051601f8301601f19908116603f011681019082821181831017156200019c576200019c6200012c565b8160405283815260209250866020858801011115620001ba57600080fd5b600091505b83821015620001de5785820183015181830184015290820190620001bf565b6000602085830101528094505050505092915050565b600080600080600060a086880312156200020d57600080fd5b85516001600160401b03808211156200022557600080fd5b6200023389838a0162000142565b965060208801519150808211156200024a57600080fd5b6200025889838a0162000142565b955060408801519150808211156200026f57600080fd5b506200027e8882890162000142565b60608801516080890151919550935090506001600160a01b0381168114620002a557600080fd5b809150509295509295909350565b600181811c90821680620002c857607f821691505b602082108103620002e957634e487b7160e01b600052602260045260246000fd5b50919050565b601f8211156200033f576000816000526020600020601f850160051c810160208610156200031a5750805b601f850160051c820191505b818110156200033b5782815560010162000326565b5050505b505050565b81516001600160401b038111156200036057620003606200012c565b6200037881620003718454620002b3565b84620002ef565b602080601f831160018114620003b05760008415620003975750858301515b600019600386901b1c1916600185901b1785556200033b565b600085815260208120601f198616915b82811015620003e157888601518255948401946001909101908401620003c0565b5085821015620004005787850151600019600388901b60f8161c191681555b5050505050600190811b01905550565b634e487b7160e01b600052601160045260246000fd5b600181815b80851115620004675781600019048211156200044b576200044b62000410565b808516156200045957918102915b93841c93908002906200042b565b509250929050565b60008262000480575060016200051f565b816200048f575060006200051f565b8160018114620004a85760028114620004b357620004d3565b60019150506200051f565b60ff841115620004c757620004c762000410565b50506001821b6200051f565b5060208310610133831016604e8410600b8410161715620004f8575081810a6200051f565b62000504838362000426565b80600019048211156200051b576200051b62000410565b0290505b92915050565b60006200053660ff8416836200046f565b9392505050565b80820281158282048414176200051f576200051f62000410565b60805160a05160c0516120ec620005d460003960008181610871015281816108c201528181610ae701528181610f7f01528181610fa90152818161114a0152818161139c015281816113c60152818161141c015261146001526000818161023e01528181610eaa015261116b0152600061028801526120ec6000f3fe608060405234801561001057600080fd5b50600436106101a35760003560e01c806370a08231116100ee578063a9059cbb11610097578063c87b56dd11610071578063c87b56dd1461040d578063dd62ed3e14610420578063e985e9c51461044b578063f2fde38b1461047957600080fd5b8063a9059cbb146103d4578063b88d4fde146103e7578063be29184f146103fa57600080fd5b80638da5cb5b116100c85780638da5cb5b146103a857806395d89b41146103b9578063a22cb465146103c157600080fd5b806370a0823114610350578063715018a614610370578063771282f61461037857600080fd5b8063313ce5671161015057806355f804b31161012a57806355f804b31461030c5780636352211e1461031f5780636c0360eb1461034857600080fd5b8063313ce5671461028357806342842e0e146102bc5780634f02c420146102cf57600080fd5b8063095ea7b311610181578063095ea7b31461022657806318160ddd1461023957806323b872dd1461026e57600080fd5b806301ffc9a7146101a857806306fdde03146101d0578063081812fc146101e5575b600080fd5b6101bb6101b6366004611a3d565b61048c565b60405190151581526020015b60405180910390f35b6101d86104e8565b6040516101c79190611ac8565b61020e6101f3366004611adb565b6006602052600090815260409020546001600160a01b031681565b6040516001600160a01b0390911681526020016101c7565b6101bb610234366004611b0b565b610576565b6102607f000000000000000000000000000000000000000000000000000000000000000081565b6040519081526020016101c7565b61028161027c366004611b35565b61070b565b005b6102aa7f000000000000000000000000000000000000000000000000000000000000000081565b60405160ff90911681526020016101c7565b6102816102ca366004611b35565b610bab565b6003546102eb906fffffffffffffffffffffffffffffffff1681565b6040516fffffffffffffffffffffffffffffffff90911681526020016101c7565b61028161031a366004611c34565b610bc6565b61020e61032d366004611adb565b6000908152600860205260409020546001600160a01b031690565b6101d8610c45565b61026061035e366004611c85565b60046020526000908152604090205481565b610281610c52565b6003546102eb9070010000000000000000000000000000000090046fffffffffffffffffffffffffffffffff1681565b6000546001600160a01b031661020e565b6101d8610c66565b6102816103cf366004611ca0565b610c73565b6101bb6103e2366004611b0b565b610cfd565b6102816103f5366004611cdc565b610d11565b610281610408366004611d58565b610e22565b6101d861041b366004611adb565b611051565b61026061042e366004611d99565b600560209081526000928352604080842090915290825290205481565b6101bb610459366004611d99565b600760209081526000928352604080842090915290825290205460ff1681565b610281610487366004611c85565b6111f0565b60007fffffffff0000000000000000000000000000000000000000000000000000000082167f490649060000000000000000000000000000000000000000000000000000000014806104e257506104e28261124c565b92915050565b600180546104f590611dcc565b80601f016020809104026020016040519081016040528092919081815260200182805461052190611dcc565b801561056e5780601f106105435761010080835404028352916020019161056e565b820191906000526020600020905b81548152906001019060200180831161055157829003601f168201915b505050505081565b6003546000906fffffffffffffffffffffffffffffffff16821180159061059d5750600082115b156106a6576000828152600860205260409020546001600160a01b03163381148015906105ee57506001600160a01b038116600090815260076020908152604080832033845290915290205460ff16155b15610625576040517f82b4290000000000000000000000000000000000000000000000000000000000815260040160405180910390fd5b60008381526006602090815260409182902080547fffffffffffffffffffffffff0000000000000000000000000000000000000000166001600160a01b038881169182179092559251868152908416917f8c5be1e5ebec7d5bd14f71427d1e84f3dd0314c0f7b2291e5b200ac8c7c3b925910160405180910390a350610702565b3360008181526005602090815260408083206001600160a01b03881680855290835292819020869055518581529192917f8c5be1e5ebec7d5bd14f71427d1e84f3dd0314c0f7b2291e5b200ac8c7c3b925910160405180910390a35b50600192915050565b6003546fffffffffffffffffffffffffffffffff168111610b25576000818152600860205260409020546001600160a01b03848116911614610779576040517fddb5de5e00000000000000000000000000000000000000000000000000000000815260040160405180910390fd5b6001600160a01b0382166107b9576040517f9c8d2cd200000000000000000000000000000000000000000000000000000000815260040160405180910390fd5b6000818152600660205260409020546001600160a01b03908116908416331480159061080957506001600160a01b038416600090815260076020908152604080832033845290915290205460ff16155b801561081e5750336001600160a01b03821614155b15610855576040517f82b4290000000000000000000000000000000000000000000000000000000000815260040160405180910390fd5b6001600160a01b038416600090815260046020526040812080547f0000000000000000000000000000000000000000000000000000000000000000929061089d908490611e4e565b90915550506001600160a01b03808416600081815260046020908152604080832080547f00000000000000000000000000000000000000000000000000000000000000000190558683526008909152902080547fffffffffffffffffffffffff000000000000000000000000000000000000000016909117905581161561095357600082815260066020526040902080547fffffffffffffffffffffffff00000000000000000000000000000000000000001690555b6001600160a01b0384166000908152600960205260408120805461097990600190611e4e565b8154811061098957610989611e61565b6000918252602080832090910154858352600a82526040808420546001600160a01b038a168552600990935290922080549293509091839190839081106109d2576109d2611e61565b60009182526020808320909101929092556001600160a01b0388168152600990915260409020805480610a0757610a07611e90565b600082815260208082208301600019908101839055909201909255838252600a815260408083208490556001600160a01b038816808452600983529083208054600181810183558286529385200188905592529054610a669190611e4e565b6000858152600a602052604080822092909255905185916001600160a01b0380891692908a16917fddf252ad1be2c89b69c2b068fc378daa952ba7f163c4a11628f55a4df523b3ef91a4846001600160a01b0316866001600160a01b03167fe59fdd36d0d223c0c7d996db7ad796880f45e1936cb0bb7ac102e7082e0314877f0000000000000000000000000000000000000000000000000000000000000000604051610b1591815260200190565b60405180910390a3505050505050565b6001600160a01b03831660009081526005602090815260408083203384529091529020546000198114801590610b645750336001600160a01b03851614155b15610b9857610b738282611e4e565b6001600160a01b03851660009081526005602090815260408083203384529091529020555b610ba384848461132f565b50505b505050565b610ba683838360405180602001604052806000815250610d11565b610bce611508565b6000600b8054610bdd90611dcc565b90501115610c355760035460408051600181526fffffffffffffffffffffffffffffffff90921660208301527f6bd5c950a8d8df17f772f5af37cb3655737899cbf903264b9795592da439661c910160405180910390a15b600b610c418282611f0f565b5050565b600b80546104f590611dcc565b610c5a611508565b610c64600061154e565b565b600280546104f590611dcc565b3360008181526007602090815260408083206001600160a01b0387168085529083529281902080547fffffffffffffffffffffffffffffffffffffffffffffffffffffffffffffff001686151590811790915590519081529192917f17307eab39ab6107e8899845ad3d59bd9653f200f220920489ca2b5937696c31910160405180910390a35050565b6000610d0a33848461132f565b9392505050565b610d1c84848461070b565b6001600160a01b0383163b15801590610de557506040517f150b7a0200000000000000000000000000000000000000000000000000000000808252906001600160a01b0385169063150b7a0290610d7d903390899088908890600401611fed565b6020604051808303816000875af1158015610d9c573d6000803e3d6000fd5b505050506040513d601f19601f82011682018060405250810190610dc09190612029565b7fffffffff000000000000000000000000000000000000000000000000000000001614155b15610e1c576040517f3da6393100000000000000000000000000000000000000000000000000000000815260040160405180910390fd5b50505050565b610e2a611508565b6003546fffffffffffffffffffffffffffffffff90811690821611610e7b576040517ff0e9e6d400000000000000000000000000000000000000000000000000000000815260040160405180910390fd5b600354610ece9070010000000000000000000000000000000090046fffffffffffffffffffffffffffffffff167f0000000000000000000000000000000000000000000000000000000000000000611e4e565b816fffffffffffffffffffffffffffffffff161115610f19576040517ffd59427a00000000000000000000000000000000000000000000000000000000815260040160405180910390fd5b6001600160a01b03821660009081526004602052604081208054600380547001000000000000000000000000000000008082046fffffffffffffffffffffffffffffffff9081168801811690910291811691909117909155841681019182905591610fa47f000000000000000000000000000000000000000000000000000000000000000084612075565b610fce7f000000000000000000000000000000000000000000000000000000000000000084612075565b610fd89190611e4e565b905060005b81811015610ff657610fee866115b6565b600101610fdd565b506040516fffffffffffffffffffffffffffffffff851681526001600160a01b038616906000907fe59fdd36d0d223c0c7d996db7ad796880f45e1936cb0bb7ac102e7082e0314879060200160405180910390a35050505050565b606061105c826116e0565b506000600b805461106c90611dcc565b80601f016020809104026020016040519081016040528092919081815260200182805461109890611dcc565b80156110e55780601f106110ba576101008083540402835291602001916110e5565b820191906000526020600020905b8154815290600101906020018083116110c857829003601f168201915b505050505090506000815111156111da5760008360405160200161110b91815260200190565b604080517fffffffffffffffffffffffffffffffffffffffffffffffffffffffffffffffe081840301815291905280516020909101209050600061118f7f00000000000000000000000000000000000000000000000000000000000000007f0000000000000000000000000000000000000000000000000000000000000000612075565b6111999083612089565b6111a490600161209d565b9050826111b082611734565b6040516020016111c19291906120b0565b6040516020818303038152906040529350505050919050565b5050604080516020810190915260008152919050565b6111f8611508565b6001600160a01b038116611240576040517f1e4fbdf7000000000000000000000000000000000000000000000000000000008152600060048201526024015b60405180910390fd5b6112498161154e565b50565b60007fffffffff0000000000000000000000000000000000000000000000000000000082167f36372b070000000000000000000000000000000000000000000000000000000014806112df57507fffffffff0000000000000000000000000000000000000000000000000000000082167f80ac58cd00000000000000000000000000000000000000000000000000000000145b806104e257507f01ffc9a7000000000000000000000000000000000000000000000000000000007fffffffff000000000000000000000000000000000000000000000000000000008316146104e2565b6001600160a01b038084166000818152600460205260408082208054948716835290822054928252909291908490846113688386611e4e565b90915550506001600160a01b038581166000908152600460205260408082208054880190559188168152908120546113c1907f000000000000000000000000000000000000000000000000000000000000000090612075565b6113eb7f000000000000000000000000000000000000000000000000000000000000000085612075565b6113f59190611e4e565b905060005b818110156114135761140b886117d4565b6001016113fa565b505060006114417f000000000000000000000000000000000000000000000000000000000000000083612075565b6001600160a01b038716600090815260046020526040902054611485907f000000000000000000000000000000000000000000000000000000000000000090612075565b61148f9190611e4e565b905060005b818110156114ad576114a5876115b6565b600101611494565b5050846001600160a01b0316866001600160a01b03167fe59fdd36d0d223c0c7d996db7ad796880f45e1936cb0bb7ac102e7082e031487866040516114f491815260200190565b60405180910390a350600195945050505050565b6000546001600160a01b03163314610c64576040517f118cdaa7000000000000000000000000000000000000000000000000000000008152336004820152602401611237565b600080546001600160a01b038381167fffffffffffffffffffffffff0000000000000000000000000000000000000000831681178455604051919092169283917f8be0079c531659141344cd1fd0a4f28419497f9722a3daafe3b4186f6b6457e09190a35050565b6001600160a01b0381166115f6576040517f9c8d2cd200000000000000000000000000000000000000000000000000000000815260040160405180910390fd5b600380547fffffffffffffffffffffffffffffffff00000000000000000000000000000000811660016fffffffffffffffffffffffffffffffff9283168101909216908117909255600082815260086020908152604080832080547fffffffffffffffffffffffff0000000000000000000000000000000000000000166001600160a01b03881690811790915580845260098084528285208054888752600a865284872081905591855295810186559484529183209093018490559151839291907fddf252ad1be2c89b69c2b068fc378daa952ba7f163c4a11628f55a4df523b3ef908290a45050565b6000818152600860205260409020546001600160a01b03168061172f576040517fc5723b5100000000000000000000000000000000000000000000000000000000815260040160405180910390fd5b919050565b606060006117418361192d565b600101905060008167ffffffffffffffff81111561176157611761611b71565b6040519080825280601f01601f19166020018201604052801561178b576020820181803683370190505b5090508181016020015b600019017f3031323334353637383961626364656600000000000000000000000000000000600a86061a8153600a850494508461179557509392505050565b6001600160a01b038116611814576040517fddb5de5e00000000000000000000000000000000000000000000000000000000815260040160405180910390fd5b6001600160a01b0381166000908152600960205260408120805461183a90600190611e4e565b8154811061184a5761184a611e61565b9060005260206000200154905060096000836001600160a01b03166001600160a01b0316815260200190815260200160002080548061188b5761188b611e90565b600082815260208082208301600019908101839055909201909255828252600a815260408083208390556008825280832080547fffffffffffffffffffffffff000000000000000000000000000000000000000090811690915560069092528083208054909216909155518291906001600160a01b038516907fddf252ad1be2c89b69c2b068fc378daa952ba7f163c4a11628f55a4df523b3ef908390a45050565b6000807a184f03e93ff9f4daa797ed6e38ed64bf6a1f0100000000000000008310611976577a184f03e93ff9f4daa797ed6e38ed64bf6a1f010000000000000000830492506040015b6d04ee2d6d415b85acef810000000083106119a2576d04ee2d6d415b85acef8100000000830492506020015b662386f26fc1000083106119c057662386f26fc10000830492506010015b6305f5e10083106119d8576305f5e100830492506008015b61271083106119ec57612710830492506004015b606483106119fe576064830492506002015b600a83106104e25760010192915050565b7fffffffff000000000000000000000000000000000000000000000000000000008116811461124957600080fd5b600060208284031215611a4f57600080fd5b8135610d0a81611a0f565b60005b83811015611a75578181015183820152602001611a5d565b50506000910152565b60008151808452611a96816020860160208601611a5a565b601f017fffffffffffffffffffffffffffffffffffffffffffffffffffffffffffffffe0169290920160200192915050565b602081526000610d0a6020830184611a7e565b600060208284031215611aed57600080fd5b5035919050565b80356001600160a01b038116811461172f57600080fd5b60008060408385031215611b1e57600080fd5b611b2783611af4565b946020939093013593505050565b600080600060608486031215611b4a57600080fd5b611b5384611af4565b9250611b6160208501611af4565b9150604084013590509250925092565b7f4e487b7100000000000000000000000000000000000000000000000000000000600052604160045260246000fd5b600067ffffffffffffffff80841115611bbb57611bbb611b71565b604051601f85017fffffffffffffffffffffffffffffffffffffffffffffffffffffffffffffffe0908116603f01168101908282118183101715611c0157611c01611b71565b81604052809350858152868686011115611c1a57600080fd5b858560208301376000602087830101525050509392505050565b600060208284031215611c4657600080fd5b813567ffffffffffffffff811115611c5d57600080fd5b8201601f81018413611c6e57600080fd5b611c7d84823560208401611ba0565b949350505050565b600060208284031215611c9757600080fd5b610d0a82611af4565b60008060408385031215611cb357600080fd5b611cbc83611af4565b915060208301358015158114611cd157600080fd5b809150509250929050565b60008060008060808587031215611cf257600080fd5b611cfb85611af4565b9350611d0960208601611af4565b925060408501359150606085013567ffffffffffffffff811115611d2c57600080fd5b8501601f81018713611d3d57600080fd5b611d4c87823560208401611ba0565b91505092959194509250565b60008060408385031215611d6b57600080fd5b611d7483611af4565b915060208301356fffffffffffffffffffffffffffffffff81168114611cd157600080fd5b60008060408385031215611dac57600080fd5b611db583611af4565b9150611dc360208401611af4565b90509250929050565b600181811c90821680611de057607f821691505b602082108103611e19577f4e487b7100000000000000000000000000000000000000000000000000000000600052602260045260246000fd5b50919050565b7f4e487b7100000000000000000000000000000000000000000000000000000000600052601160045260246000fd5b818103818111156104e2576104e2611e1f565b7f4e487b7100000000000000000000000000000000000000000000000000000000600052603260045260246000fd5b7f4e487b7100000000000000000000000000000000000000000000000000000000600052603160045260246000fd5b601f821115610ba6576000816000526020600020601f850160051c81016020861015611ee85750805b601f850160051c820191505b81811015611f0757828155600101611ef4565b505050505050565b815167ffffffffffffffff811115611f2957611f29611b71565b611f3d81611f378454611dcc565b84611ebf565b602080601f831160018114611f725760008415611f5a5750858301515b600019600386901b1c1916600185901b178555611f07565b6000858152602081207fffffffffffffffffffffffffffffffffffffffffffffffffffffffffffffffe08616915b82811015611fbf57888601518255948401946001909101908401611fa0565b5085821015611fdd5787850151600019600388901b60f8161c191681555b5050505050600190811b01905550565b60006001600160a01b0380871683528086166020840152508360408301526080606083015261201f6080830184611a7e565b9695505050505050565b60006020828403121561203b57600080fd5b8151610d0a81611a0f565b7f4e487b7100000000000000000000000000000000000000000000000000000000600052601260045260246000fd5b60008261208457612084612046565b500490565b60008261209857612098612046565b500690565b808201808211156104e2576104e2611e1f565b600083516120c2818460208801611a5a565b8351908301906120d6818360208801611a5a565b0194935050505056fea164736f6c6343000818000aa164736f6c6343000818000a",
    "linkReferences": {}
  },
  "methodIdentifiers": {
    "deployERC404(string,string,string,uint256)": "07494a01",
    "deploymentFee()": "f2cff57f",
    "deploymentFeeForUser(address)": "36c43af7",
    "deploymentsOf(address)": "4217f757",
    "freePeriod()": "b433d112",
    "owner()": "8da5cb5b",
    "renounceOwnership()": "715018a6",
    "setDeploymentFee(uint128)": "e5eaf1a1",
    "setFreePeriod((uint64,uint64))": "d6f2b6b0",
    "transferOwnership(address)": "f2fde38b",
    "vault()": "fbfa77cf"
  },
  "id": 34
}